{
  "contractName": "BlockchainSplitwise",
  "abi": [
    {
      "constant": true,
      "inputs": [
        {
          "name": "debtor",
          "type": "address"
        },
        {
          "name": "creditor",
          "type": "address"
        }
      ],
      "name": "lookup",
      "outputs": [
        {
          "name": "ret",
          "type": "uint32"
        }
      ],
      "payable": false,
      "stateMutability": "view",
      "type": "function",
      "signature": "0x713584a6"
    },
    {
      "constant": false,
      "inputs": [
        {
          "name": "creditor",
          "type": "address"
        },
        {
          "name": "amount",
          "type": "uint32"
        },
        {
          "name": "_meOrOthers",
          "type": "bool"
        }
      ],
      "name": "add_IOU",
      "outputs": [],
      "payable": false,
      "stateMutability": "nonpayable",
      "type": "function",
      "signature": "0x2a80c8e0"
    },
    {
      "constant": true,
      "inputs": [],
      "name": "get_all_users",
      "outputs": [
        {
          "name": "",
          "type": "address[]"
        }
      ],
      "payable": false,
      "stateMutability": "view",
      "type": "function",
      "signature": "0xe04070aa"
    }
  ],
  "bytecode": "0x608060405234801561001057600080fd5b506106a1806100206000396000f3fe608060405260043610610057576000357c0100000000000000000000000000000000000000000000000000000000900463ffffffff1680632a80c8e01461005c578063713584a6146100c9578063e04070aa1461015a575b600080fd5b34801561006857600080fd5b506100c76004803603606081101561007f57600080fd5b81019080803573ffffffffffffffffffffffffffffffffffffffff169060200190929190803563ffffffff1690602001909291908035151590602001909291905050506101c6565b005b3480156100d557600080fd5b50610138600480360360408110156100ec57600080fd5b81019080803573ffffffffffffffffffffffffffffffffffffffff169060200190929190803573ffffffffffffffffffffffffffffffffffffffff1690602001909291905050506104aa565b604051808263ffffffff1663ffffffff16815260200191505060405180910390f35b34801561016657600080fd5b5061016f610543565b6040518080602001828103825283818151815260200191508051906020019060200280838360005b838110156101b2578082015181840152602081019050610197565b505050509050019250505060405180910390f35b8273ffffffffffffffffffffffffffffffffffffffff163373ffffffffffffffffffffffffffffffffffffffff161415151561026a576040517f08c379a00000000000000000000000000000000000000000000000000000000081526004018080602001828103825260188152602001807f596f752063616e74206f776520796f757273656c6621212e000000000000000081525060200191505060405180910390fd5b610273836105d1565b15156102e05760018390806001815401808255809150509060018203906000526020600020016000909192909190916101000a81548173ffffffffffffffffffffffffffffffffffffffff021916908373ffffffffffffffffffffffffffffffffffffffff160217905550505b6102e9336105d1565b15156103565760013390806001815401808255809150509060018203906000526020600020016000909192909190916101000a81548173ffffffffffffffffffffffffffffffffffffffff021916908373ffffffffffffffffffffffffffffffffffffffff160217905550505b816000808573ffffffffffffffffffffffffffffffffffffffff1673ffffffffffffffffffffffffffffffffffffffff16815260200190815260200160002060010160003373ffffffffffffffffffffffffffffffffffffffff1673ffffffffffffffffffffffffffffffffffffffff16815260200190815260200160002060006101000a81548163ffffffff021916908363ffffffff160217905550806000808573ffffffffffffffffffffffffffffffffffffffff1673ffffffffffffffffffffffffffffffffffffffff16815260200190815260200160002060020160006101000a81548160ff021916908315150217905550806000803373ffffffffffffffffffffffffffffffffffffffff1673ffffffffffffffffffffffffffffffffffffffff16815260200190815260200160002060020160006101000a81548160ff021916908315150217905550505050565b60008060008373ffffffffffffffffffffffffffffffffffffffff1673ffffffffffffffffffffffffffffffffffffffff16815260200190815260200160002060010160008473ffffffffffffffffffffffffffffffffffffffff1673ffffffffffffffffffffffffffffffffffffffff16815260200190815260200160002060009054906101000a900463ffffffff16905092915050565b606060018054806020026020016040519081016040528092919081815260200182805480156105c757602002820191906000526020600020905b8160009054906101000a900473ffffffffffffffffffffffffffffffffffffffff1673ffffffffffffffffffffffffffffffffffffffff168152602001906001019080831161057d575b5050505050905090565b600080600090505b60018054905081101561066a578273ffffffffffffffffffffffffffffffffffffffff1660018281548110151561060c57fe5b9060005260206000200160009054906101000a900473ffffffffffffffffffffffffffffffffffffffff1673ffffffffffffffffffffffffffffffffffffffff16141561065d576001915050610670565b80806001019150506105d9565b50600090505b91905056fea165627a7a72305820e862922d1545463f1cca67b177ea5501304d4ba5a28e95e23732ad058186774f0029",
  "source": "// Please paste your contract's solidity code here\n// Note that writing a contract here WILL NOT deploy it and allow you to access it from your client\n// You should write and develop your contract in Remix and then, before submitting, copy and paste it here\npragma solidity >=0.4.22 <0.6.0;\n\ncontract BlockchainSplitwise {\n\n    struct User {\n        string name;\n        mapping (address => uint32) myCredits;\n        bool meOrOthers;\n        bool test;\n    }\n\n    mapping (address => User) allUsers;\n    address[] allUsersAddress;\n\n    function lookup(address debtor, address creditor) public view returns (uint32 ret){\n        ret = allUsers[creditor].myCredits[debtor];\n    }\n\n    function add_IOU(address creditor, uint32 amount, bool _meOrOthers) public{\n        require(\n            msg.sender != creditor,\n            \"You cant owe yourself!!.\"\n        );\n        if(!already_exist(creditor))\n            allUsersAddress.push(creditor);\n        if(!already_exist(msg.sender))\n            allUsersAddress.push(msg.sender);\n\n        allUsers[creditor].myCredits[msg.sender] = amount;\n        allUsers[creditor].meOrOthers = _meOrOthers;\n        allUsers[msg.sender].meOrOthers = _meOrOthers;\n    }\n\n    function already_exist(address adr) internal view returns (bool) {\n        for(uint i=0; i<allUsersAddress.length; i++)\n            if(allUsersAddress[i] == adr)\n                return true;\n        return false;\n    }\n\n    function get_all_users() public view returns (address[] memory) {\n        return allUsersAddress;\n    }\n}\n",
  "sourcePath": "/home/mohammad/CACrypto/contracts/BlockchainSplitwise.sol",
  "compiler": {
    "name": "solc",
    "version": "0.5.0+commit.1d4f565a.Emscripten.clang"
  },
  "schemaVersion": "3.0.5",
  "updatedAt": "2019-03-27T11:55:10.014Z",
  "devdoc": {
    "methods": {}
  },
  "userdoc": {
    "methods": {}
  }
}